:020000040000FA
:100000008000C2AF7597DE7597ADD2AF7500FF75F2
:1000100001FF7502FF7503FF750401750500750684
:100020000075070012003E80FEE95AFB22A800A9D5
:1000300001AA02AB03AC04AD05AE06AF0722C0D0E7
:10004000750C0012002DE82CF5085015E92401F973
:10005000500FEA2401FA5009EB2401FB5003750C00
:1000600001E92DF509500FEA2401FA5009EB2401AA
:10007000FB5003750C01EA2EF50A5009EB2401FB35
:100080005003750C01EB2FF50B4004E50C24FFD059
:02009000D0227C
:00000001FF
